:020000040800F2
:1000000010080020CD010008B908000867060008A4
:10001000A1060008AD020008D30E00080000000091
:10002000000000000000000000000000790A000845
:100030005D04000800000000410900088D0B000865
:10004000E7010008E7010008E7010008E7010008F0
:10005000E7010008E7010008E7010008E7010008E0
:10006000E7010008E7010008E7010008E7010008D0
:10007000E7010008E7010008E7010008E7010008C0
:10008000E7010008E7010008E7010008E7010008B0
:10009000E7010008E7010008E7010008E7010008A0
:1000A000E7010008E7010008E7010008E701000890
:1000B000E7010008E7010008E7010008E701000880
:1000C000E7010008E7010008E7010008E701000870
:1000D000E7010008F10B0008850C0008E7010008A3
:1000E000E7010008E7010008E7010008E701000850
:1000F000E7010008E7010008E7010008E701000840
:10010000E7010008E7010008E7010008E70100082F
:10011000E7010008E7010008E7010008E70100081F
:10012000E7010008E7010008E7010008E70100080F
:1001300000F002F800F03AF80AA090E8000C8244BF
:100140008344AAF10107DA4501D100F02FF8AFF29C
:10015000090EBAE80F0013F0010F18BFFB1A43F0A5
:1001600001031847F011000010120000103A24BFDC
:1001700078C878C1FAD8520724BF30C830C144BF0C
:1001800004680C607047000000230024002500264E
:10019000103A28BF78C1FBD8520728BF30C148BFEA
:1001A0000B6070471FB51FBD10B510BD00F033F8D0
:1001B0001146FFF7F7FF00F0EBFE00F051F803B433
:1001C000FFF7F2FF03BC00F086FE000009488047FD
:1001D00009480047FEE7FEE7FEE7FEE7FEE7FEE729
:1001E000FEE7FEE7FEE7FEE704480549054A064B41
:1001F00070470000910B0008310100081002002038
:1002000010080020100400201004002070477047E0
:10021000704770477047754600F028F8AE460500F5
:100220006946534620F00700854618B020B5FFF711
:10023000DBFFBDE820404FF000064FF000074FF015
:1002400000084FF0000B21F00701AC46ACE8C009F4
:10025000ACE8C009ACE8C009ACE8C0098D467047FD
:100260000446AFF300802046FFF7A9FF004870471F
:10027000B001002070B502460C46FF25FF2309E0BF
:1002800012F8010B80EA03010648405C80EA05038E
:100290000548455C2000A4F10106B4B2F0D143EA60
:1002A000052070BD541100085412000800BFFEE77D
:1002B00021B1026842F00102026004E002684FF6D8
:1002C000FE731A400260704701684FF6FE721140DB
:1002D00001600021016041608160C1604B4988423A
:1002E00008D14A490839496841F00F01474A083A9C
:1002F00051608AE045491431884208D143490839A0
:10030000496841F0F001414A083A51607DE03F49B7
:100310002831884208D13D490839496841F4706163
:100320003A4A083A516070E038493C31884208D175
:1003300036490839496841F47041344A083A5160F5
:1003400063E032495031884208D130490839496860
:1003500041F470212D4A083A516056E02B4964312E
:10036000884208D129490839496841F47001274A6F
:10037000083A516049E025497831884208D123493B
:100380000839496841F07061204A083A51603CE000
:100390001F49884206D1011F096841F00F01021F61
:1003A000116032E01A491431884208D11849091FF6
:1003B000096841F0F001164A121F116025E0144946
:1003C0002831884208D11249091F096841F4706137
:1003D0000F4A121F116018E00D493C31884208D1C4
:1003E0000B49091F096841F47041094A121F116045
:1003F0000BE007495031884207D10549091F0968B8
:1004000041F47021024A121F116070470800024037
:10041000080402400146486880B2704710B50022C7
:10042000026847F6F0739A430C6A8B6823430C69A1
:1004300023434C6923438C692343CC6923434C6A8F
:1004400023438C6A23431A430260CB6843600B68E2
:1004500083604B68C36010BD416070477047000007
:1004600070B50025002433480078012861D1324856
:100470000088801E81B22F48FFF7FCFE05462E48FB
:100480000088801E2B49095C2B480088401E294AA1
:10049000105C41EA0024A54202D0042027490870DC
:1004A0002448C0782349897840EA012024490880FB
:1004B00008460088082802DD0220204908701F48ED
:1004C0000078B0B91B484078032804D0062805D02E
:1004D000102809D105E000F0E5F809E000F042F944
:1004E00006E000F08BF903E001201449087000BF1A
:1004F00000BF1248007800281BDD0E480078114923
:1005000008700C48407840F0800048700B48007834
:10051000887003210B48FFF7ADFE04460949CC70F3
:10052000201208710521074800F060FD00200349F2
:10053000087070BD82000020160000201C00002002
:100540001A000020B40000202DE9F04102460025E9
:100550000026002000230024002791F803C00CF09F
:100560000F0591F803C00CF0100CBCF1000F03D084
:1005700091F802C04CEA050591F800C0BCF1000FEB
:1005800031D0146800202BE04FF0010C0CFA00F37E
:10059000B1F800C00CEA03069E4220D183004FF060
:1005A0000F0C0CFA03F7BC4305FA03FC4CEA0404F5
:1005B00091F803C0BCF1280F06D14FF0010C0CFAE2
:1005C00000FCC2F814C00AE091F803C0BCF1480F67
:1005D00005D14FF0010C0CFA00FCC2F810C0401C11
:1005E0000828D1D31460B1F800C0BCF1FF0F34DD8E
:1005F000546800202EE000F1080C4FF0010808FAC2
:100600000CF3B1F800C00CEA03069E4221D183002E
:100610004FF00F0C0CFA03F7BC4305FA03FC4CEA4D
:10062000040491F803C0BCF1280F05D100F1080CB7
:1006300008FA0CF8C2F8148091F803C0BCF1480F16
:1006400007D100F1080C4FF0010808FA0CF8C2F8C5
:100650001080401C0828CED35460BDE8F081416171
:1006600070470161704700BFFEE7000008B5012137
:10067000082000F087F90520ADF8000010208DF863
:10068000030003208DF8020069460448FFF75CFF71
:1006900005210248FFF7E3FF08BD0000000C014000
:1006A00000BFFEE770B500240026002528484079E9
:1006B0002749097940EA012426480088204409286E
:1006C00041DC23480078244908702148407848706C
:1006D0006006000E887000BF19E01E4800884000C8
:1006E00000EB45001D49085C032101EB45011A4A56
:1006F000505418480088400000EB4500401C174942
:10070000085C042101EB45015054681CC5B2A542A8
:10071000E3DB032000EB440081B20F48FFF7AAFDA2
:100720000646032101EB44010B4A565430120421C2
:1007300001EB44015054052000EB440081B2104607
:1007400000F054FC02E003200549087070BD000071
:10075000820000201A000020B40000201D000020AC
:100760001C00002070B5002500241F4840791E4958
:10077000097940EA0125B5F57A7F30DC1A4801791C
:100780001A4800881A4A02F8101017484179174889
:100790000088012202EB4000154A115412480078EB
:1007A000144908701048407848700F488078887065
:1007B0000D48C078C8700C48007908710A48407923
:1007C000487106210B48FFF755FD044609498C7115
:1007D0002012C8710821074800F008FC02E003203D
:1007E0000549087070BD0000820000201A0000203A
:1007F0001D000020B40000201C00002070B5002562
:1008000000260024274840792649097940EA012535
:10081000254800882844092840DC00BF1BE0072049
:1008200000EB44001F49085C1F490988490001EB9F
:1008300044011E4A5054082000EB44001949095C49
:1008400019480088012202EB400000EB4400174ADF
:100850001154601CC4B2AC42E1DB12480078144968
:1008600008701048407848700E48807888700D48AD
:10087000C078C8700B48007908710A4840794871FF
:1008800006210B48FFF7F6FC064609498E71301227
:10089000C8710821064800F0A9FB02E003200549C1
:1008A000087070BD820000201A0000201D0000208A
:1008B000B40000201C0000207047000070B500212B
:1008C00000230F22C47804B3154C246804F4E064B8
:1008D000C4F5E064210AC1F10403CA40447804FA73
:1008E00003F184781440214309010E4C0678A15588
:1008F000047804F01F050124AC4005786D11AD00AB
:1009000005F1E025C5F8004109E0047804F01F0571
:100910000124AC40044D0678761145F8264070BDA0
:100920000CED00E000E400E080E100E0024901435A
:10093000024A1160704700000000FA050CED00E06B
:100940007047000029B1064A52690243044B5A61BC
:1009500004E0034A52698243014B5A617047000028
:100960000010024029B1064AD2690243044BDA6101
:1009700004E0034AD2698243014BDA617047000008
:100980000010024029B1064A92690243044B9A6161
:1009900004E0034A92698243014B9A617047000068
:1009A0000010024030B500210022002400232D4D0C
:1009B0006D6805F00C0121B1042905D0082923D167
:1009C00005E0294D056022E0274D05601FE0254D1B
:1009D0006D6805F47012234D6D6805F480340225AE
:1009E00005EB92421CB9214D554305600BE01D4DAE
:1009F0006D6805F400351DB11C4D5543056002E0DE
:100A0000194D5543056002E0174D056000BF00BF5A
:100A1000144D6D6805F0F0010909154D6B5C056812
:100A2000DD4045600F4D6D6805F4E061090A104D29
:100A30006B5C4568DD4085600A4D6D6805F460516A
:100A4000C90A0B4D6B5C4568DD40C560054D6D689E
:100A500005F44041890B074D6B5CC568B5FBF3F5A8
:100A6000056130BD0010024000127A0000093D000F
:100A70003A0000204A000020704710B500F002F84C
:100A800010BD00000CB500200190009033480068B4
:100A900040F480303149086000BF3048006800F4FD
:100AA000003000900198401C0190009818B90198FE
:100AB000B0F5A06FF1D12948006800F4003010B102
:100AC0000120009001E0002000900098012843D10F
:100AD0002348006840F0100021490860084600687B
:100AE00020F0030008600846006840F0020008603B
:100AF0001A484068194948600846406848600846F6
:100B0000406840F4806048600846406820F47C10EB
:100B100048600846406840F4E810486008460068AD
:100B200040F08070086000BF0C48006800F0007062
:100B30000028F9D00948406820F0030007494860C0
:100B40000846406840F00200486000BF0348406823
:100B500000F00C000828F9D10CBD00000010024084
:100B600000200240042808D14FF0E021096941F03B
:100B700004014FF0E022116107E04FF0E021096924
:100B800021F004014FF0E02211617047704700002E
:100B900010B51348006840F001001149086008468C
:100BA0004068104908400E494860084600680E49F0
:100BB00008400B4908600846006820F4802008605F
:100BC0000846406820F4FE0048604FF41F0088602B
:100BD000FFF753FF4FF000600449086010BD0000AC
:100BE000001002400000FFF8FFFFF6FE08ED00E0F5
:100BF00010B540F225511F4800F0A7F830B304218A
:100C00001D48FFF72CFD1B4800F05AF9C4B21B48E1
:100C1000008800F40040C8B91848008800F48040FB
:100C200060B10A2C03D000201449088020E013484A
:100C3000008840F400401149088019E00D2C06D1CD
:100C40000E48008840F480400C49088010E00B48B2
:100C50000088C0F30D000A490C5408480088401C65
:100C60000649088008460088C72801DD0020088062
:100C700010BD000000380140000C01403800002089
:100C8000E600002010B5002440F22441114800F095
:100C90005CF8E8B10F4800F013F900210E48FFF7A7
:100CA00007FB0D48FFF7B6FBC0F132000B49088087
:100CB000084601880A4800F011F901200949087026
:100CC00040F22441034800F00FF8034800F07EF999
:100CD00010BD0000004400406C00024014000020E1
:100CE000500000201800002010B50022002340F61C
:100CF0006A14A14200D100BF0A1201249440A3B299
:100D0000DC43048010BD21B1828942F4005282810B
:100D100004E082894DF6FF731A40828170471AB150
:100D2000838A0B43838202E0838A8B4383827047EA
:100D300002460020B1F5007F00D100BF13880B40B0
:100D40000BB1012000E00020704770B5024600247E
:100D500000230025002040F66A16B14200D100BFF2
:100D6000C1F3421501F01F03012606FA03F3012D1A
:100D700002D19689334006E0022D02D1168A334013
:100D800001E0968A33400C12012606FA04F4168814
:100D9000344013B10CB1012000E0002070BDF0B56B
:100DA0000346002400260025002040F66A17B942B9
:100DB00000D100BF1846C1F3421401F01F060127FD
:100DC00007FA06F5012C01D10C3004E0022C01D108
:100DD000103000E014301AB107682F43076002E0BA
:100DE0000768AF430760F0BD2DE9F04786B00546C0
:100DF0000E460024A24600BFA1460027B08900B1DC
:100E000000BF2F462C8A4CF6FF700440F088044344
:100E10002C82AC894EF6F3100440B0883189084327
:100E2000718908430443AC81AC8A4FF6FF4004400B
:100E3000B0890443AC8201A8FFF7B4FD1F48874284
:100E400002D1DDF810A001E0DDF80CA0A88900F4C3
:100E5000004040B10AEBCA0000EB0A1031684900BB
:100E6000B0FBF1F807E00AEBCA0000EB0A103168AA
:100E70008900B0FBF1F86420B8FBF0F00401200910
:100E8000642101FB1089A88900F4004040B13220A0
:100E900000EBC900B0FBF1F000F00700044308E0EC
:100EA000322000EB09106421B0FBF1F000F00F00DC
:100EB00004432C8106B0BDE8F087000000380140F3
:100EC00001468888C0F308007047C1F30802828099
:100ED000704700BFFEE7014600BF704710B50246ED
:100EE000054B1980002004E0135C044C2354431C80
:100EF00098B28842F8DB10BD160000208200002066
:100F000010B56FF00400FFF72DFE0A4800680A498B
:100F1000B0FBF1F0094908700846007800EB400189
:100F2000C1EBC0104FF6FF7101EAC0000449088010
:100F300010BD00000000002000127A0030000020E8
:100F4000320000200146114A12884A434FF0E02344
:100F50005A6100229A611A46126942F001021A612E
:100F600000BF4FF0E022106900F001021AB100F456
:100F70008032002AF5D04FF0E022126922F00102FF
:100F80004FF0E0231A6100229A617047320000207E
:100F900000BF4FF4A060FFF7C9FCFFF7B1FFFFF7F8
:100FA00065FB4FF4165000F049F80BE00648007856
:100FB00020B1002004490870FFF752FA4FF47A700C
:100FC000FFF7C0FFF2E700001800002010B504464C
:100FD00000212046FFF76CF932212046FFF73CFA4A
:100FE00001212046FFF764F910BD000070B50546E9
:100FF0000E4604210F48FFF734FB00240CE000BF2D
:1010000040210D48FFF794FE0028F9D0295D0A48D9
:10101000FFF75BFF601C84B2B442F0DB00BF4021ED
:101020000548FFF785FE0028F9D004210148FFF7A5
:1010300016FB70BD000C01400044004010B586B0A6
:10104000044601210420FFF79DFC01214804FFF71D
:1010500089FC0420ADF8140018208DF81700032037
:101060008DF8160005A92248FFF76EFA0820ADF8A2
:10107000140004208DF8170003208DF8160005A930
:101080001B48FFF761FA26208DF8000002208DF83A
:1010900001008DF8020001208DF803006846FFF77B
:1010A0000DFC01940020ADF80800ADF80A00ADF881
:1010B0000C00ADF80A000C20ADF80E000020ADF8D1
:1010C000100001A90B48FFF78FFE012240F22441D6
:1010D0000848FFF764FE012240210648FFF71FFE83
:1010E00000F00AF801210348FFF70DFE06B010BD1D
:1010F000000801400044004000B58BB001210846C3
:10110000FFF720FC1048FFF7DFF810480090104868
:101110000190002002903220039000200490802053
:10112000059000200690079008904FF48050099099
:1011300000200A9069460448FFF770F9012102482F
:10114000FFF7B6F80BB000BD6C000240044400404D
:101150005000002000C1814001C0804101C0804199
:1011600000C1814001C0804100C1814000C1814077
:1011700001C0804101C0804100C1814000C1814067
:1011800001C0804100C1814001C0804101C0804157
:1011900000C1814001C0804100C1814000C1814047
:1011A00001C0804100C1814001C0804101C0804137
:1011B00000C1814000C1814001C0804101C0804127
:1011C00000C1814001C0804100C1814000C1814017
:1011D00001C0804101C0804100C1814000C1814007
:1011E00001C0804100C1814001C0804101C08041F7
:1011F00000C1814000C1814001C0804101C08041E7
:1012000000C1814001C0804100C1814000C18140D6
:1012100001C0804100C1814001C0804101C08041C6
:1012200000C1814001C0804100C1814000C18140B6
:1012300001C0804101C0804100C1814000C18140A6
:1012400001C0804100C1814001C0804101C0804196
:1012500000C1814000C0C101C30302C2C60607C766
:1012600005C5C404CC0C0DCD0FCFCE0E0ACACB0BD6
:10127000C90908C8D81819D91BDBDA1A1EDEDF1F06
:10128000DD1D1CDC14D4D515D71716D6D21213D3F6
:1012900011D1D010F03031F133F3F23236F6F737A6
:1012A000F53534F43CFCFD3DFF3F3EFEFA3A3BFB96
:1012B00039F9F83828E8E929EB2B2AEAEE2E2FEF46
:1012C0002DEDEC2CE42425E527E7E62622E2E323B6
:1012D000E12120E0A06061A163A3A26266A6A767E6
:1012E000A56564A46CACAD6DAF6F6EAEAA6A6BAB56
:1012F00069A9A86878B8B979BB7B7ABABE7E7FBF86
:101300007DBDBC7CB47475B577B7B67672B2B37375
:10131000B17170B050909151935352929656579725
:10132000559594549C5C5D9D5F9F9E5E5A9A9B5B15
:1013300099595898884849894B8B8A4A4E8E8F4FC5
:101340008D4D4C8C44848545874746868242438335
:10135000418180407413000800000020500000000C
:101360006C010008C413000850000020C0070000F2
:101370008801000800A24A040000000000000000EC
:101380000102030406070809000000000000000035
:101390000000010002000300040005000600070031
:1013A000080009000000000000000000000000002C
:1013B00000000102030401020304060708090204F5
:0413C000060800001B
:04000005080001CD21
:00000001FF
